:1000000000800020BD01000009C60000C1C500003D
:10001000C1C50000C1C50000C1C50000C1C50000C8
:10002000C1C50000C1C50000C1C5000009C600006F
:1000300009C60000C1C5000005E4000009E5000094
:1000400009C6000009C6000009C6000009C6000074
:1000500009C6000009C6000009C6000009C6000064
:1000600009C6000009C6000009C6000009C6000054
:1000700009C6000009C6000009C6000009C6000044
:1000800009C6000009C6000009C6000009C6000034
:1000900009C6000009C6000009C6000009C6000024
:1000A00021BF00002DBF000009C6000009C60000E6
:1000B00009C6000009C6000009C6000009C6000004
:1000C00009C6000009C6000009C6000009C60000F4
:1000D00009C6000009C6000009C6000009C60000E4
:1000E00009C6000009C6000009C6000009C60000D4
:1000F00009C600009DF1000009C60000C9F2000019
:1001000009C60000F5F3000009C6000009C600009A
:1001100009C6000009C6000009C6000009C60000A3
:1001200009C6000009C6000009C6000009C6000093
:1001300009C6000009C6000009C6000009C6000083
:1001400009C6000009C6000009C6000009C6000073
:10015000E1E60000F5E6000009E700001DE7000009
:1001600009C6000075CF000009C6000009C60000DE
:1001700009C6000009C6000009C6000009C6000043
:1001800009C6000009C6000009C6000009C6000033
:1001900009C6000009C6000009C6000009C6000023
:1001A00009C6000009C6000009C6000009C6000013
:1001B00009C6000009C60000C1E10000564B4CF220
:1001C000205210B51A804DF628121A8000BF00BFC9
:1001D0000CF01EFA514B4FF010621A60504A9A60B0
:1001E000504ADA60504A136813F4807304D14F49BF
:1001F0000B604FF4A85313604D4B1A78110703D5C9
:100200001A7842F008021A704A4B4B492A221A7097
:100210004A4A4B4B8B4204D252F8040F43F8040B6A
:10022000F8E7484B484900228B4202D243F8042B9E
:10023000FAE74649464A002352F8230041F82300D2
:1002400001336F2BF8D1434B434A802103F8011B44
:100250009342FBD1414B3D4A1A60414B8A221A70AE
:10026000A3F5805324225A70A0221A709A7992071B
:10027000FCD59A79D406FCD43A4A937903F00C035E
:10028000082B384BF9D103221A7140225A719A79FE
:100290009006FCD5334A9179324B4906FBD5324A58
:1002A000324911600221516020221A709A7902F0BD
:1002B0000C020C2AFAD12E4B2E4A1A602E4B2F4AD2
:1002C0001A6000225A60072243F8042C2C4AC3F813
:1002D0000C2D62B60CF026FD144B1B68DA0705D511
:1002E00028480CF0F3FA284B284A1A60284B1B7850
:1002F0005B0609D5244C254B22689A4204D121483B
:100300000CF0E4FA0023236012F000FE0CF086F9F2
:100310000EF07EFBFEE700BF0E200540308004405B
:10032000823F04000100002B10D0034014D0034092
:1003300002D0074000E00740ACBDFF1F14DE030001
:1003400030B0FF1FACBDFF1FC071002000A6FF1F13
:100350000000000000E400E05FE400E008ED00E0E1
:100360000050064000400640448004400000030165
:1003700004800440C010050014E000E0FF76010096
:10038000000020202A79BA591CE00340A5C3945AE2
:1003900000F00740FFFFFFFFFFFFFFFFFFFFFFFF32
:1003A000FFFFFFFFFFFFFFFFFFFFFFFFFFFFFFFF5D
:1003B000FFFFFFFFFFFFFFFFFFFFFFFFFFFFFFFF4D
:1003C000FFFFFFFFFFFFFFFFFFFFFFFFFFFFFFFF3D
:1003D000FFFFFFFFFFFFFFFFFFFFFFFFFFFFFFFF2D
:1003E000FFFFFFFFFFFFFFFFFFFFFFFFFFFFFFFF1D
:1003F000FFFFFFFFFFFFFFFFFFFFFFFFFFFFFFFF0D
:10040000FFFFFFFFFFFFFFFFFFFFFFFFDEF9FFFF23
:1004100010B5054C237833B9044B13B10448AFF33E
:1004200000800123237010BDACBDFF1F0000000041
:1004300018DE0300084B10B51BB108490848AFF39C
:1004400000800848036803B910BD074B002BFBD0A0
:10045000BDE81040184700BF00000000B0BDFF1FFE
:1004600018DE0300ACBDFF1F00000000704700BF96
:1004700010B504460EF012F9204610BD2DE9F84FD4
:10048000304B1C78002C57D02F4B304D1868304F14
:10049000304E4FF07C5112F01BFB2F4B8246D3F8AD
:1004A000008005EB840932E000232B609B4656F860
:1004B000044F5946204612F0A9FC48B1274940464E
:1004C00012F006FB0146204612F0FAF904463060AD
:1004D0002146584612F09AFC28B12046414612F0B7
:1004E000EDF9044630602146404612F0A3FC58B1B5
:1004F0005846002112F080FC30B1002333604FF0E9
:1005000000033B8000232B6004354D4514D037F9A0
:10051000023F134A52F823B05146584612F076FC77
:100520000028C1D10F49584612F08EFC30B1DFF8D7
:1005300034B0C5F800B0BAE7BDE8F88FC5F800B030
:10054000B5E700BF22B2FF1FF439002074D8FF1FA7
:100550001E6A0020C86700201CB2FF1F0000A041D7
:10056000483B00206666663F002310B4104C417281
:10057000026104600372C36041B1194600E0026980
:1005800042F82310427A01339A42F8DC094B1A6888
:100590000AB90AE01A465369002BFBD150610023C7
:1005A00043618380C38010BC70471860F7E700BFC9
:1005B000E43F0100446F0020F8B50C1E36DBB4F5B3
:1005C000806F36DB40F2FF352C4611F0D7FD00225C
:1005D000194B11F027FE194B064618680F4611F00B
:1005E000CDFD02460B463046394611F045FF12F06C
:1005F000F1F8134A134E136830601844830D124902
:1006000010609D420B6005D9C3EB0330B0FBF5F0E1
:1006100000B2F8BD5B1BC3EB0333C4F58060B3FBD2
:10062000F0F0C0F57F600F3000B2F8BD00252C4619
:10063000CBE72546C9E700BF0000F0413439002070
:10064000A047002040300020EC3100202DE9F04F81
:10065000704D714C83B00CF0F5FA2B686F4AC01ADC
:1006600010600CF0EFFA237828600133DBB2022B24
:10067000237006D96A4B1B78062B00F02A820023D0
:100680002370684EB6F90030002B48D0012B664C21
:1006900000F0B680B4F90000644A654B654DA0F6E1
:1006A000FF7002FB00F083FB00230344C017A0EBA4
:1006B000E32303F6FF73194605202B800CF018F98D
:1006C0005D4BB3F90030A3B95C4B5D4CB3F900004E
:1006D00012F0AAF95B4B196812F0FAF912F0BEFB9E
:1006E0002080B4F90010282003B0BDE8F04F0CF0D2
:1006F000FFB8012B40F08281504B514CB3F9000000
:1007000012F092F94F4B196812F0E2F94E4912F0CB
:10071000D5F800F1004012F0A1FB2080E1E7DFF8FE
:1007200050B1DFF85081BBF900503F4C40F26B53A1
:100730009D4240F36F81AFB2A7F26D539BB240F27E
:100740005962934200F29C80B8F90070384612F06A
:100750006BF93E4912F0BCF94FF07C5112F0B0F841
:100760003B4B186011F00AFD00223A4B11F05AFD84
:10077000394B80461868894611F000FD02460B4649
:100780004046494611F078FE12F024F8334B3449C4
:10079000DFF8E4E0DFF8E4C0DEF80020A5F6C735B6
:1007A00003FB05F581FB05132B44ED17A5EBA325F2
:1007B0002C4B0244910D186005F2CA3540F6FF73C8
:1007C000A94234BF1D460025CEF800202580CCF874
:1007D0000010254BB3F90030012B00F00281234BB0
:1007E000B3F90030012B00F00581B7F57F6FB6F942
:1007F0000030C4BF40F6FF722280012B7FF44AAF65
:1008000040F26C7140F2A4600EF01AF800B2208041
:1008100042E700BFB4D8FF1F7043002064D6FF1F1B
:10082000CE460020E43100201A3E002027F2FFFFD0
:1008300081000880722F0020406A0020D2BEFF1F76
:10084000A06A00203CE0FF1F00F07F45010FF03B55
:10085000146800200000F0413439002068FCFFFFDC
:1008600037FF1EA140300020AE6A00203CBEFF1FB3
:10087000D0BEFF1F1A680020A0470020EC310020E6
:1008800040F6C7339D4240F32A81B8F90000C0F515
:100890007F600F3012F0C8F8A24912F0CDF94FF086
:1008A000804112F00DF8A049A04BA14A1B88B2F973
:1008B000002001928146B1F900009E49101A0133CF
:1008C0009A4AC1F800901BB21380009312F0ACF862
:1008D000494612F0B1F9984B984A1860116811F026
:1008E000EFFF0021824612F091FA002840F0F480D8
:1008F000924B9349C3F800A0504612F0A5FA60B19C
:100900008F49504611F0DAFF014611F0D9FF014638
:10091000504611F0D3FF894B1860009812F084F80C
:100920000146484612F072FA002840F0B880484666
:10093000844912F081F912F091FA834B00B21880C9
:10094000009B9842CABF784B4FF06409B3F90090FE
:10095000B5F54A6F04DA794B186812F07FFA2080F7
:100960006FF44A62BB18B3F5B77F16D8774BB3F96B
:10097000000012F059F84FF07C5112F0A9F86F4BBB
:1009800082464FF07C51186812F0A2F8014650469A
:1009900011F096FF12F062FA20806FF46163FB1889
:1009A000B3F5957F02D8694B1B882380A7F65B7748
:1009B0008A2F50D940F6E6739D42D2BFB4F90000A9
:1009C000A4F800904846B0F5805F60DB40F6FF7306
:1009D00023805F4BB8F90070B3F90030012B7FF42E
:1009E000FEAE5C4B1B8823805B4BB3F90030012BC0
:1009F0007FF4FBAE594B1B882380F6E6022B71D1A6
:100A0000574BB4F900101980282003B0BDE8F04F0F
:100A10000BF06EBFB8F9000012F006F8514912F061
:100A200057F84FF07C5111F04BFF424B07461F60C7
:100A3000284611F0F9FF4C4912F04AF84B4911F0E1
:100A40003FFF12F00BFA01B23846FFF7B5FDBBF9D4
:100A5000005020806FE63D4BB3F9000011F0E4FF39
:100A60004FF07C5112F034F80546484611F0DCFF97
:100A70004FF07C5112F02CF80146284611F020FF6F
:100A800012F0ECF900B2B0F5805F20809EDA002809
:100A9000B8BF0023B8F90070B8BF238099E6224B95
:100AA000BDF804201A80202100200DF0C9FE214A43
:100AB000264BD2F800901C4ABBF9005012881A80CD
:100AC0001B4AC0011080194A0023AFB21380009363
:100AD0002DE7FFF7D3FCD2E50AF1004A08E7B8F9A1
:100AE000007076E6032B0CD121881D4BC1F57F6188
:100AF0000F3109B22820198003B0BDE8F04F0BF088
:100B0000F7BE042B0CD11A4A154B1188C1EB0131E9
:100B100009B22820198003B0BDE8F04F0BF0E8BE01
:100B20000F4CDEE500003841886A0020BA470020FB
:100B30008A6A002014680020A0310020BCBEFF1F7C
:100B400000F07F450000A040A26A0020BAD8FF1F35
:100B5000AE6A0020203F00203CBEFF1FFC3000207A
:100B6000A06A0020010FF03B2370383F00002041B5
:100B7000E4430020012842DD2DE9F04F00F1804BD5
:100B8000DFF88090DFF88080DFF880A01C4F83B012
:100B90000BF1FF3B09EB8B03019359F8046F002124
:100BA000304612F051F900B301242046554601E0C9
:100BB00037F91B0011F038FF0146304612F044F9B6
:100BC000A34668B137F9140011F02EFF01463046F4
:100BD00012F026F920B12A7812B9621EA8F8002076
:100BE0000134402C05F10105E2D1019B994508F142
:100BF00002080AF13F0AD0D103B0BDE8F08F704778
:100C000030D20200F4380020A2390020BBD6FF1FEA
:100C10002DE9F04F584BB3F9003085B03BB9574B35
:100C2000012103F1090203F8011F9A42FBD1544F3D
:100C3000B7F90040012C00F0E986DFF874B1022C0E
:100C400001F06981032C01F0AB83042C01F0FE85D7
:100C5000042C40F37882072C00F07582494D4A48F5
:100C60004A494B4A0023052CAB6283628B62936234
:100C700040F06982474ADFF83CC1DFF83CE1464F6B
:100C8000464E4749B2F90000BB6143F233324FF49C
:100C90008035CCF81820CCF81C20CCF82020CCF8DB
:100CA0002420CEF81820CEF81C20CEF82020CEF834
:100CB0002420FB613B627D62B561F5613362736242
:100CC0008D61CB610B624B6211F046FA02460B4616
:100CD00011F0A8FA11F07EFD000B11F0A1FE3149D0
:100CE000314DDFF8D8A011F0F3FE4FF07E5111F036
:100CF000E7FD2E4B0646B3F9000011F095FE4FF0CC
:100D00007E538146CAF808300146C5F8089030463F
:100D100011F0DEFE07463146EF60484611F08CFFC9
:100D2000804639463046C5F8108011F0D1FE07469E
:100D3000314640466F6111F07FFF804639463046AC
:100D4000C5F8188011F0C4FE074631464046EF61F1
:100D500011F072FF39462862304611F0B9FE05F1F4
:100D60000802009468620AF104074FF002080326A3
:100D70001446CDF804B02AE092320020FF40002053
:100D80004C3E0020BC470020344000206C40002036
:100D9000A4400020F043002094670020C8420020B7
:100DA00074430020010C403AF4380020B8D8FF1FEB
:100DB00080BEFF1FB83F0020F03F0020302F0020F2
:100DC000013654F8049FF6B2043708F10108B8F16F
:100DD000020FC04902F04A80D7F800B0584611F01F
:100DE00077FE0146584611F069FDBB4978604846D8
:100DF00012F00CF820B1002345F828304AF82830CA
:100E00000A2EDDD1DAF80860002130469DE810088E
:100E100011F0FCFF002841F0E9864FF07E5130468A
:100E200012F012F8002801F06A874FF48030DAF8E7
:100E30000C60DFF8C4920021C9F82000304611F0A0
:100E4000E5FF002841F0D5864FF07E51304611F085
:100E5000FBFF002801F04A874FF48030DAF8106079
:100E6000DFF898820021C8F82000304611F0CEFF4C
:100E7000002841F0CC864FF07E51304611F0E4FF5F
:100E8000002801F02A874FF48030DAF81460934B81
:100E900000211862304611F0B9FF002841F0B486F5
:100EA0004FF07E51304611F0CFFF002801F0398716
:100EB0004FF48030DAF81860894B00211862304610
:100EC00011F0A4FF002841F09C864FF07E5130467F
:100ED00011F0BAFF002801F01B874FF48030DAF8D8
:100EE0001C60804B00211862304611F08FFF0028F3
:100EF00041F084864FF07E51304611F0A5FF002866
:100F000001F0D9864FF48030DAF82060764B00216A
:100F10001862304611F07AFF002841F096864FF0B3
:100F20007E51304611F090FF002801F0BB864FF44F
:100F30008030DAF82460DFF8C8A10021CAF8200068
:100F4000304611F063FF002841F07C864FF07E515F
:100F5000304611F079FF002801F0B6864FF480305A
:100F6000AE68624F00213862304611F04FFF002812
:100F700041F065865E49304611F066FF002841F079
:100F8000C9855C49304611F0A3FD11F08DFFEE6874
:100F9000C9F81C000021304611F038FF002841F04C
:100FA0004B865349304611F04FFF002841F0C4856D
:100FB0005049304611F08CFD11F076FF2E69C8F8CB
:100FC0001C000021304611F021FF002841F031863D
:100FD0004749304611F038FF002841F0AA854549BD
:100FE000304611F075FD11F05FFF6E693B4B00213B
:100FF000D861304611F00AFF002841F017863C49BD
:10100000304611F021FF002841F0908539493046E3
:1010100011F05EFD11F048FFAE69314B0021D8613F
:10102000304611F0F3FE002841F0FD85304930468E
:1010300011F00AFF002841F076852E49304611F064
:1010400047FD11F031FFEE69264B0021D861304693
:1010500011F0DCFE002841F0E3852549304611F00F
:10106000F3FE002841F05C852249304611F030FD46
:1010700011F01AFF2E6A1C4B0021D861304611F086
:10108000C5FE002841F0C9851949304611F0DCFE43
:10109000002841F042851749304611F019FD11F042
:1010A00003FF6D6ACAF81C000021284611F0AEFE4D
:1010B000002841F0AF850E49284611F0C5FE0028F2
:1010C00041F01E850B49284611F002FD11F0ECFE9F
:1010D00018E000BF9A99193E000020426469002080
:1010E00088690020AC690020D0690020F4690020E4
:1010F000A655AC464B24BE471C6900204069002021
:10110000E0460020774A784E784D7949F86100230F
:101110004FF00050F3617362CBF82030EB616B62EB
:10112000CB614B62D361536290617249724A734ED4
:10113000734D0023072C8B620B8393621383F3623E
:10114000AB6138DC0FE36F4BDFF8FCE16E4E6F4DA7
:101150006F487049704A00271F62DF616F4BCEF8FD
:101160002070062CCEF81C703762F7612F62EF6199
:101170000762C7610F62CF611762D7611F62DF61CB
:1011800000F00E83574B58485849594ADF614FF0D9
:101190000055072C5F629D61CBF82070C7614762E4
:1011A000CF614F62D76157625D4B00F0CF80082C52
:1011B000BBD1524E524D5B4A5B4BB2F9000000214D
:1011C0004FF480329961D9615962AA611A62F26260
:1011D00011F02AFC554911F07BFC5549054611F0E8
:1011E00033FE0446002840F0C1820021284611F059
:1011F0000DFE002841F005844FF08F41284611F084
:1012000067FC11F02BFE4B4BCBF8180000244FF479
:1012100080320A2101209A61DC611C625C62CBF899
:101220001C40CBF82040CBF824400DF009FB40F2E5
:101230005741054601200DF003FB4FF4FA710746B4
:1012400001200DF0FDFA3C4BB3F90060B6F5006FDC
:10125000804680F2CB81304611F0E6FB4FF06851BA
:1012600011F036FC354B4FF07E511860064611F0F8
:1012700025FB334B2E4900F1004528461D6011F037
:10128000E3FD0446002840F0FD850021284611F0CA
:10129000BDFD002841F0A2844FF08F41284611F097
:1012A00017FC11F0DBFD274C2149A061304611F0FD
:1012B000CBFD0546002841F05F800021304611F04B
:1012C000A5FD002841F08D844FF08F41304611F08C
:1012D000FFFB11F0C3FD0023E061236205B0BDE810
:1012E000F08F00BFC4300020703000204830002054
:1012F0009C300020D83A0020103B00208C2F00208A
:10130000883A002040690020646900208869002034
:10131000AC690020D0690020E0460020F46900207C
:1013200080BEFF1FB8D8FF1F74430020010C403A55
:1013300000FEFF4694670020F0430020104100208B
:10134000F0320020346600201C6900209349944A42
:10135000944C9548954DDD614FF480369F615F62F6
:101360008F61CF610F624F629761D76157621662DA
:10137000B0F90000A761E7612762676211F054FBD2
:101380004FF0725111F0A4FB894B00215860986016
:10139000D860054611F03AFD002841F041838549A7
:1013A000284611F051FD002840F07C8582492846EE
:1013B00011F08EFB4FF07C5111F082FA11F074FDA8
:1013C0007E4C0021A062284611F020FD002841F04B
:1013D00045857849284611F037FD002841F0E8821C
:1013E0007549284611F074FB4FF07C5111F068FAF2
:1013F00011F05AFD724E0021B062284611F006FD30
:10140000002841F028856B49284611F01DFD002871
:1014100041F0CB826849284611F05AFB4FF07C51CD
:1014200011F04EFA11F040FD0346664A664DB2F9DE
:101430000000AB6211F0F8FA6449074611F0E6FCCF
:1014400000284BD0624B634A23634FF4637040F231
:101450004A43A0843263B3845F49384611F038FBB5
:101460004FF07E51814611F029FA00F100484046C4
:101470005A4911F0E9FC0446002841F03E8300215E
:10148000404611F0C3FC002841F05A844FF08F41D0
:10149000404611F01DFB11F0E1FCDFF84C814F4993
:1014A000C8F81800484611F0CFFC0446002841F067
:1014B00021830021484611F0A9FC002841F0438413
:1014C0004FF08F41484611F003FB11F0C7FC002399
:1014D000C8F81C00C8F82030C8F824303B4938460A
:1014E00011F0A8FC002800F04E823D49384611F06A
:1014F0008DFC002800F04782364B3A4A336340F2B5
:101500004A4440F275332A63AB84B4842F49DFF830
:10151000D880384611F0D2F92F4911F0D9FA4FF09E
:101520007E51054611F0CAF9002300F1004630460D
:101530002A49C8F8183011F087FC0446002841F009
:1015400026830021304611F061FC002841F02884F8
:101550004FF08F41304611F0BBFA11F07FFCC8F814
:101560001C001E49284611F06FFC0446002841F07B
:1015700083830021284611F049FC002841F00D84A6
:101580004FF08F41284611F0A3FA11F067FC0023B9
:10159000C8F82000C8F82430F5E100BFB466002088
:1015A0007443002034660020B8D8FF1F3333010095
:1015B000F4380020A655AC464B243E47BC470020DB
:1015C00034400020F04300206C40002000F0FF4435
:1015D000184D0200E8BD01000108003A00FEFF4678
:1015E00000F07F457CC60100FC65002038B211F098
:1015F0001BFA0021074611F009FC38B95C4938464E
:1016000011F022FC002800F040845A4C5A4F28B2B6
:1016100011F00AFA594911F05BFA0021BC62054643
:1016200011F0F4FB002841F0C6814FF07E512846AE
:1016300011F00AFCB7F91830002800F03A84002BAA
:1016400001F0CF8147F6FF730FFA88F03B8311F06A
:10165000EBF90021044611F0D9FB002841F0268265
:101660004349204611F0F0FB002841F089814449AC
:10167000204611F02DFA4FF07C5111F021F911F0B4
:1016800013FC404C0021A062284611F0BFFB00284B
:1016900041F0A3814FF07E51284611F0D5FBB4F9FB
:1016A0001830002801F00F8247F6FF70002B01F080
:1016B000A48120830021284611F0A8FB002841F0D6
:1016C000DE834FF07E51284611F0BEFB002801F06A
:1016D000F0814FF000432362A6F5006011F0A4F9F9
:1016E0004FF0685111F0F4F9274B284C18604FF077
:1016F0007E51074611F0E2F8254A264900F10046DE
:10170000002330461660A36111F09EFB05460028B9
:1017100040F02C860021304611F078FB38B94FF0AC
:101720008F41304611F0D4F911F098FB05461A4963
:10173000E561384611F0CCF91649064611F084FBF4
:101740000546002840F015860021304611F05EFB6A
:10175000002841F0DC814FF08F41304611F0B8F99C
:1017600011F07CFB206205B0BDE8F08F0B484AE524
:10177000A655AC46C0FFFF3FD83A0020CDCCCC3DAB
:101780004B243E47103B00201041002034660020CF
:10179000F032002000FEFF460000C0400000FF7F46
:1017A000804B8149B3F90000804BDFF854E2804D53
:1017B000804A814C814EDFF84C82DFF84C929F6169
:1017C000DF611F625F6200EBD0704FF48033AF6166
:1017D000EF612F626F628F61CF614F620B62CBF856
:1017E00018704010CBF81C70CBF82470CEF818702D
:1017F000CEF81C70CEF82070CEF82470CBF82030D4
:101800009361D7611762576263627362C8F82430CC
:10181000C9F8243011F008F9694D0021686082464A
:1018200011F0F4FA002841F03B816649504611F06E
:101830000BFB002840F03B836349504611F048F908
:1018400011F032FBD5F808B0E0610021584611F0E4
:10185000DDFA002841F0D8805A49584611F0F4FAD0
:10186000002841F099805849584611F031F911F09B
:101870001BFBEC68F0610021204611F0C7FA00283C
:1018800041F0CB804F49204611F0DEFA002841F0AC
:1018900080804D49204611F01BF911F005FB2C69A1
:1018A000C8F81C000021204611F0B0FA002841F0D1
:1018B000B1804449204611F0C7FA002841F0668003
:1018C0004149204611F004F911F0EEFA3F4BC9F8F6
:1018D0001C00B3F9000011F0A7F83D49044611F0CF
:1018E00095FAA0B13B49204611F0F2F84FF0804143
:1018F00010F0E4FF00F10041504611F09DF9364927
:10190000A860504611F0E4F80023E8602B613049EC
:10191000204611F08FFA00B33049204611F076FAD4
:10192000D8B12B49204610F0C9FF2D4911F0D0F84D
:101930002C4910F0C3FF51460646504610F0C0FF38
:1019400006F10046A8605146304611F0C1F84FF04C
:101950008141E86011F0BCF828612049204611F06F
:1019600069FA80B11D49204610F0A8FF1E4911F008
:10197000AFF8514611F0ACF81C49A86011F0A8F876
:101980000023E8602B611A491A4A1B4C1B480023AC
:101990008B620B83E36283611383936205B0BDE8BE
:1019A000F08F00BFB8D8FF1F74430020B46600203A
:1019B00034660020946700207030002048300020FA
:1019C000F4380020A6552C464B24BE47F043002097
:1019D00000A0AA44010CC03A0AD7A33C00A02A45A3
:1019E000410BB43C0000F0416109163D0AD7233C8D
:1019F000D83A0020103B00208C2F0020883A00208D
:101A0000FC6500209C300020C4300020C14AC24B3D
:101A1000DFF854B3B2F90000DFF8509300244FF41C
:101A200080324FF233319C61DC615C621A62CBF828
:101A30001C10CBF81840CBF82040CBF8244010F015
:101A4000F3FF4FF07C51804611F042F84FF07A518D
:101A50008246C9F80400404611F03AF84FF0785138
:101A6000C9F808000646404611F032F84FF07651AA
:101A7000C9F80C000546404611F02AF800218046BE
:101A8000C9F81000504611F0C1F9002841F00B8050
:101A9000A249504611F0D8F9002840F00682A0492A
:101AA000504611F015F84FF07C5110F009FF11F07D
:101AB000FBF99C4C0021A062304611F0A7F90028E8
:101AC00040F0B8879549304611F0BEF9002840F043
:101AD0005A879349304610F0FBFF4FF07C5110F0CD
:101AE000EFFE11F0E1F9904E0021B062284611F0AE
:101AF0008DF9002840F09B878849284611F0A4F909
:101B0000002840F04C878649284610F0E1FF4FF04E
:101B10007C5110F0D5FE11F0C7F9844D0021A86268
:101B2000404611F073F9002840F071877B49404628
:101B300011F08AF9002840F035877949404610F0C5
:101B4000C7FF4FF07C5110F0BBFE11F0ADF903461A
:101B5000DFF81C820420C8F82830FFF70BF8744A1D
:101B6000744BB2F90890B2F906C0B2F902E0B2F9CA
:101B70000410714803EB492203EB412103EB4E2E85
:101B8000C8F8302003EB4C23FF22A284C4F830E0D5
:101B90003163B0F90000A8F82420B284AA842B6332
:101BA00010F042FF6549044611F030F9002841D099
:101BB0006349204610F08CFF624B05461D602946A4
:101BC000614810F07BFE6149804611F03DF9064600
:101BD000002840F08C870021404611F017F90028BA
:101BE00041F0AB804FF08F41404610F071FF11F093
:101BF00035F9DFF880815549C8F81800284611F0FA
:101C000023F90646002840F06F870021284611F08E
:101C1000FDF8002841F08E804FF08F41284610F0EB
:101C200057FF11F01BF90023C8F81C00C8F820303A
:101C3000C8F824304149204611F0FCF8002860D053
:101C40004349204611F0E2F800285AD03B4920468B
:101C500010F034FE3F49064610F03AFF3E4B3F4934
:101C600018600546304610F033FF364B06461E60BE
:101C700029463B4810F022FE3449814611F0E4F831
:101C80008046002800F06F87364BDFF8E880294651
:101C9000C8F818304FF07C5010F010FE2B498146E8
:101CA00011F0D2F80546002840F0EC8700214846A4
:101CB00011F0ACF8002841F081804FF08F41484688
:101CC00010F006FF11F0CAF8C8F81C001F49304692
:101CD00011F0BAF80546002840F0D18700213046BF
:101CE00011F094F8002841F05E804FF08F413046AB
:101CF00010F0EEFE11F0B2F80023C8F82000C8F88A
:101D000024301349204611F095F8002800F0FE8099
:101D100032E000BFB8D8FF1F74430020A655AC4680
:101D20004B243E47BC470020344000206C4000203C
:101D3000A039002068CD0100F043002000A0AA4493
:101D4000010CC039104100209A99993F00FEFF46CE
:101D500000A02A4553002939F84700207D807D39AD
:101D60003333333F0000FF7F80BEFF1FF438002075
:101D7000A4400020FC6500205749204611F046F899
:101D8000002800F0C3802046544910F097FD5449C4
:101D9000054610F09DFE534B5349186004462846F3
:101DA00010F096FE514B05461D602146504810F03C
:101DB00085FD5049804611F047F80646002840F05E
:101DC000E3860021404611F021F838B94FF08F41E9
:101DD000404610F07DFE11F041F80646DFF82881FC
:101DE0004548C8F81860214610F068FD414906468C
:101DF00011F02AF80446002840F04A8700213046B6
:101E000011F004F8002840F0E2874FF08F4130468F
:101E100010F05EFE11F022F8C8F81C00354930467B
:101E200011F012F80446002841F01D8000213046D0
:101E300010F0ECFF002840F0BE874FF08F41304695
:101E400010F046FE11F00AF8C8F82000294928468B
:101E500010F0FAFF0446002840F0178700212846BA
:101E600010F0D4FF002840F0AC874FF08F41284697
:101E700010F02EFE10F0F2FFB7F90040C8F8240071
:101E8000FEF7DDBE1D48FFF70EBA1D49384610F0BB
:101E90001FFE4FF07C5110F013FD11F005F80446C1
:101EA000FFF7B4BB1748FFF78BBA164801E6154891
:101EB000C8E4002B40F089860021284610F09CFFE2
:101EC0000C49002800F0BD87284610F001FE10F0F4
:101ED000C5FF03B2FFF7B8BB00F07F4500A02A455D
:101EE000ECD17538F84700207D807D391041002005
:101EF00014AE073F00FEFF46C3F5A83E0000FF7F7B
:101F00004B243E47C0FFFF3FFC650020B7F900406F
:101F1000022C7EF497AE0420FEF72CFEC049C14A85
:101F2000B1F906E0C04CB1F90230B1F90480BF4DFF
:101F3000B4F900A0B1F908C0BD48BE4CBE4EBF49BF
:101F4000009102EB432302EB482802EB4E22BC49EE
:101F50002A63BA4A23634FF0FF0E002300EB4C2C98
:101F6000C6F830804FF48038C2F830C0A4F824E0BE
:101F7000A6F824E0A5F824E0A2F824E08B61CB6168
:101F80004B62C1F82080CBF81830CBF82030CBF86A
:101F900024305046CBF81C80029310F045FDDFF84A
:101FA000D49280460AEBDA704010C9F8048010F031
:101FB0003BFD0346C9F8083000904146404610F00A
:101FC0007FFC4FF07A510190C9F80C00404610F0A8
:101FD0007FFD0021C9F810008246404610F016FF30
:101FE000029B002840F03A869649404610F02CFFAC
:101FF000002840F0B5859449404610F069FD4FF047
:102000007C5110F05DFC10F04FFFA062009C00219D
:10201000204610F0FBFE002840F029868949204622
:1020200010F012FF002840F098858749204610F0F4
:102030004FFD4FF07C5110F043FC10F035FF019C38
:10204000B0620021204610F0E1FE002840F00C862E
:102050007C49204610F0F8FE002840F07B857A4944
:10206000204610F035FD4FF07C5110F029FC10F0A7
:102070001BFFA8620021504610F0C8FE002840F067
:10208000F0857049504610F0DFFE002840F05F8573
:102090006D49504610F01CFD4FF07C5110F010FCC3
:1020A00010F002FF694B654A9062B3F9000010F02E
:1020B000BBFC6749044610F0A9FE002835D06549ED
:1020C000204610F005FD644B05461D6029464FF083
:1020D0007E5010F0F3FB6149804610F0B5FE0646D5
:1020E000002800F057855E48DFF88C815B49C8F80E
:1020F0001800284610F0A8FE0646002840F0CF85BC
:102100000021284610F082FE002840F051864FF052
:102110008F41284610F0DCFC10F0A0FE0023C8F828
:102120001C00C8F82030C8F824304949204610F077
:1021300081FE002861D04B49204610F067FE002840
:102140005BD04349204610F0B9FB474910F0C0FC72
:10215000464B06461E6031464FF07C5010F0AEFBF9
:102160003E49814610F070FE0546002840F0FA8591
:102170000021484610F04AFE002840F031864FF01A
:102180008F41484610F0A4FC10F068FEDFF8E880AC
:102190003249C8F81800484610F056FE0546002897
:1021A00040F047860021484610F030FE002840F0FD
:1021B0002B864FF08F41484610F08AFC10F04EFEFF
:1021C000C8F81C002549304610F03EFE05460028A0
:1021D00040F0D3850021304610F018FE002840F072
:1021E00010864FF08F41304610F072FC10F036FE32
:1021F0000023C8F82000C8F824301A49204610F0FF
:1022000019FE002800F019831949204610F0FEFD40
:10221000002800F012832046124910F04FFB2DE0F9
:10222000A0390020E83F0100B8D8FF1F6C40002013
:1022300068CD0100BC47002034400020A4400020AD
:1022400074430020A655AC464B243E47F043002083
:1022500000A0AA44010CC0391041002000FEFF4636
:102260000000FF7F00A02A4553002939F8470020CD
:1022700000F07F45F4380020FC6500204049054609
:1022800010F026FC3F4B404918600446284610F0E9
:102290001FFC3E4B054621461D603D4810F00EFBDD
:1022A0003C49064610F0D0FD0446002840F0518518
:1022B0000021304610F0AAFD002840F08E854FF036
:1022C0008F41304610F004FC10F0C8FDDFF8CC80E0
:1022D0003049C8F81800304610F0B6FD0446002812
:1022E00040F0AA850021304610F090FD002840F013
:1022F00099854FF08F41304610F0EAFB10F0AEFDAB
:10230000C8F81C002349304610F09EFD0446002802
:1023100040F09E850021304610F078FD002840F006
:1023200067854FF08F41304610F0D2FB10F096FDDC
:10233000C8F820001749284610F086FD04460028FA
:1023400040F004850021284610F060FD002840F090
:102350004C854FF08F41284610F0BAFB10F07EFDFF
:10236000B7F90040C8F82400FEF76CBC0A4DFFF72F
:10237000DEB90948FFF7F6B90748FEF7ACBF00BF62
:10238000ECD17538F8470020CE7466391041002032
:10239000C3F5A83E00FEFF460000FF7FFC6500205D
:1023A0000420FEF7E7FBBD49BD4BB1F90620B1F9AA
:1023B0000280BC4DB1F90490B1F908C0DFF83CE3EC
:1023C000B94CBA49BA4E009103EB4222B9492A638B
:1023D00003EB4828B54AB848C4F830800EEB4C2CC3
:1023E00003EB49294FF0FF0E00234FF480388B6137
:1023F000CB614B62CBF81830CBF82030CBF82430CF
:10240000C2F830C0A4F824E0A6F824E0A5F824E03F
:10241000A2F824E0C1F82080C6F83090CBF81C80E8
:10242000B0F90000039310F0FFFADFF8D492A3494B
:10243000C9F80400804610F04BFBA1490190C9F88F
:102440000800404610F0F8FB9E490290C9F80C00C5
:10245000404610F0F1FB0021C9F8100082464046CA
:1024600010F0D4FC039B002840F0BE839649404600
:1024700010F0EAFC002840F068839449404610F0D0
:1024800027FB4FF07C5110F01BFA10F00DFDA062FD
:10249000019C0021204610F0B9FC002840F0DC83AC
:1024A0008949204610F0D0FC002840F04C83874931
:1024B000204610F00DFB4FF07C5110F001FA10F0A7
:1024C000F3FC029CB0620021204610F09FFC002823
:1024D00040F0C0837C49204610F0B6FC002840F054
:1024E00030837A49204610F0F3FA4FF07C5110F017
:1024F000E7F910F0D9FCA8620021504610F086FCE4
:10250000002840F079837049504610F09DFC002867
:1025100040F015836D49504610F0DAFA4FF07C51C7
:1025200010F0CEF910F0C0FC694B009A9062B3F93C
:10253000000010F079FA6749044610F067FC0028A3
:1025400041D06549204610F0C3FA644B05461D6032
:102550002946634810F0B2F96249804610F074FCD5
:102560000646002840F026830021404610F04EFC2D
:10257000002840F02F844FF08F41404610F0A8FA19
:1025800010F06CFCDFF87C815649C8F8180028462A
:1025900010F05AFC0646002840F07F8300212846B0
:1025A00010F034FC002840F001844FF08F412846A1
:1025B00010F08EFA10F052FC0023C8F81C00C8F886
:1025C0002030C8F824304349204610F033FC00285E
:1025D00000F0A6804449204610F018FC002800F0C6
:1025E0009F803C49204610F069F94049054610F0AB
:1025F0006FFA3F4B3F4918608146284610F068FA51
:10260000364B06461E6049463B4810F057F935499F
:10261000804610F019FC0546002840F0B1830021E7
:10262000404610F0F3FB38B94FF08F41404610F0B0
:102630004FFA10F013FC0546DFF8C8804946C8F889
:1026400018504FF07C5010F039F92649814610F0AF
:10265000FBFB0546002840F09B830021484610F014
:10266000D5FB002840F0BF834FF08F41484610F063
:102670002FFA10F0F3FBC8F81C001A49304610F08E
:10268000E3FB0546002840F081830021304610F02E
:10269000BDFB002840F0B18336E000BFA039002028
:1026A000305402006C400020BC470020A4400020B1
:1026B0003440002074430020B8D8FF1FEC51004084
:1026C000D7A30040E17A8040A655AC464B243E4754
:1026D000F043002000A0AA44010CC03910410020A2
:1026E0009A99993F00FEFF4600A02A4553002939D8
:1026F000F84700207D807D393333333F68CD0100BA
:10270000F4380020FC6500204FF08F41304610F077
:10271000DFF910F0A3FB0023C8F82000C8F824302C
:10272000C649204610F086FB002800F08A80C44984
:10273000204610F06BFB002800F083802046BF4944
:1027400010F0BCF8BF49044610F0C2F9BE4BBF49B7
:1027500018600646204610F0BBF9BD4B05461D60CB
:102760003146BC4810F0AAF8BB49804610F06CFB1B
:102770000446002840F006830021404610F046FB46
:1027800038B94FF08F41404610F0A2F910F066FBC7
:102790000446DFF80883B148C8F81840314610F005
:1027A0008DF8AD49064610F04FFB0446002840F076
:1027B000E0820021304610F029FB002840F01F8302
:1027C0004FF08F41304610F083F910F047FBC8F806
:1027D0001C00A149304610F037FB0446002840F0A9
:1027E00026830021304610F011FB002840F01D83A5
:1027F0004FF08F41304610F06BF910F02FFBC8F806
:1028000020009549284610F01FFB0446002840F0A0
:10281000BB820021284610F0F9FA002840F0EB8234
:102820004FF08F41284610F053F910F017FBB7F91D
:102830000040C8F82400FEF708BAB7F90040FEF7D8
:1028400001BAB7F90040042C7EF402AADFF84C82EA
:10285000834C844E844D4FF0000A0220C8F820A01B
:10286000C8F824A0FEF786F9804B814AB3F902101C
:10287000B3F904E07F48804BB0F90000C3F818A01A
:1028800002EB4121216302EB4E22FF214FF4803EF7
:102890003263C3F81CA0C3F824A0C3F820E0CBF82F
:1028A0001CE0A184B184CBF818A0CBF820A0CBF811
:1028B00024A010F0B9F84FF07C51009010F008F906
:1028C0004FF07A5181466860009810F001F96B4929
:1028D000E860009810F0B0F900212861484610F037
:1028E00095FA002840F0C6816549484610F0ACFAD8
:1028F000002840F00A816349484610F0E9F84FF09B
:102900007C510FF0DDFF10F0CFFA5F4BA062B3F9FE
:10291000000000244FF40043C8F81830C8F81C30F9
:10292000C8F82040C8F8244010F07EF8574910F04D
:10293000CFF857490FF0C2FF494610F0C9F8494691
:102940000FF0BEFF0021A860804610F05FFA00285B
:1029500040F07E814A49404610F076FA002840F067
:10296000D2804849404610F0B3F84FF07C510FF048
:10297000A7FF10F099FAB7F90040B062FEF768B906
:102980004448FEF77EBE4348FFF7ADB84148FEF726
:102990009DBF4048FEF783BF3E48FEF76ABF3D48F3
:1029A000FFF7BBB83B4BFFF7D3B83A4BFEF73DBD43
:1029B0003848FEF71FBD0FFA88F04FF00008A7F85F
:1029C000188010F031F80021044610F01FFA00289A
:1029D0003EF446AE304CC4F8288000232383FEF733
:1029E0007ABE47F6FF730022FA61FEF72DBE284635
:1029F00010F06EF810F032FA00B20023E361FEF737
:102A000058BE2046FEF7FFBB0020FEF732BF002372
:102A1000FFF79EB80020FEF759BF0020FEF73FBF2A
:102A20000F4C104EA7623B46B762FEF7FEBC00207B
:102A3000FFF773B80020FFF756B800BF00A02A4583
:102A400000F07F45ECD17538F8470020CE74663928
:102A50001041002014AE073F00FEFF46C3F5A83E1C
:102A6000BC47002034400020F4380020A03900206A
:102A700030540200B8D8FF1F74430020F6280041EC
:102A8000A655AC464B243E47F0430020673EB33882
:102A90000AD7233CC0FFFF3F103B0020FC6500200D
:102AA0003846FEF7CFBE2046FFF703B80020FEF7FA
:102AB000E8BD4FF09E41284610F00AF810F0F4F9F6
:102AC0000346FEF708BE002B76D10021284610F001
:102AD00093F9CF4900288AD028460FF0F9FF10F06B
:102AE000BDF900B2FEF7E5BDCA48FFF79CB8C9487A
:102AF000FFF77FB8C748FEF7EABCC648FEF7CDBC73
:102B0000C548FEF7FFBAC54835E7C448FDE6284684
:102B1000FEF728BEC048FEF73ABABF48FEF7C1BA72
:102B2000BD48FEF7A7BABC48FEF78DBABA48FEF713
:102B300073BAB948FEF759BAB748FEF73FBAB74873
:102B4000F2E4B648D7E4B548BBE4B4489FE4B348E0
:102B5000FFF7A8BAB148FFF78CBAB048FFF76FBAD1
:102B6000AE48FFF752BA0021484610F04FF900284E
:102B700040F02A814FF08F4148460FF0A9FF10F036
:102B80006DF90346FFF781B8A24EFFF727B9A148B8
:102B9000FEF7E5BC0021404610F038F9002840F06F
:102BA000F9804FF08F4140460FF092FF10F056F938
:102BB000FFF79ABA9748E5E4954928460FF088FF51
:102BC00010F04CF900B2FEF774BD914928460FF0A1
:102BD0007FFF10F043F903B2FEF736BD2046FEF743
:102BE00062BB2846FEF777BB184650E40020FEF78C
:102BF0001EB90020FEF732B9002095E40020FEF750
:102C000083B90020FEF76BB90020FEF753B900200E
:102C1000FEF73BB90020FEF775BA0020FEF741BA77
:102C20000020FEF727BA0020FEF70DBA0020FEF7BD
:102C3000F3B90020FEF7D9B90020FEF7BFB9002094
:102C4000FEF7A5B90020FEF78BB90020FEF771B999
:102C5000204690E600204EE4002032E41846FFF7BC
:102C6000D4B90020FFF71EBA0020FFF702BA0020F7
:102C7000FFF7E5B9504648E66648FEF788BC654868
:102C8000FFF73AB86348FFF71FB86248FFF7F4B898
:102C90006048C8F81C00FFF7D7B85E488CE45D4870
:102CA000FFF73CBA4FF08F4130460FF011FF10F0A4
:102CB000D5F8FEF73EB94FF08F4130460FF008FFD0
:102CC00010F0CCF8FEF720B94FF08F4130460FF0EE
:102CD000FFFE10F0C3F8FEF743B94FF08F413046C6
:102CE0000FF0F6FE10F0BAF8FEF7CFB84FF08F41B4
:102CF00030460FF0EDFE10F0B1F8FEF7AFB84FF030
:102D00008F4130460FF0E4FE10F0A8F8FEF78FB8C0
:102D10004FF08F4130460FF0DBFE10F09FF8FEF7CA
:102D2000DEB84FF08F4130460FF0D2FE10F096F82B
:102D3000FEF7C0B83046FEF776BF3046FEF759BF03
:102D40002046FEF7AABB2046FEF7C1BB3148FFF77D
:102D500007BBDFF8CC802F48C8F81800C8F81C0063
:102D6000FFF7E6BADFF8B8802A48C8F81800FFF77E
:102D700027BA2848C8F81C0041E52648FFF738BAAA
:102D8000244D59E4234C04E5224850E52148C2E48F
:102D9000204870E43046FFF7A7B92046FEF7F7BB9E
:102DA0002046FEF7DCBB2846FEF7A6BF304603E40C
:102DB0003046FFF7B3B92046FFF746B82846FEF77E
:102DC00083BF2046FFF758B84346FEF75EBF204654
:102DD000FFF722B83046FFF7D5BB2046FFF776BA9B
:102DE0002846FFF7D3B9284645E42046FFF7B8BA8E
:102DF0002046FFF79DBA204619E528468BE4204679
:102E0000E5E42846FFF7F4B92846FFF7D9B900BF33
:102E100000FEFF460000FF7F80FFFF7FC0FFFF3FF7
:102E2000FC6500202046FFF76BBA2046E7E4154812
:102E3000E5E41448FFF7C4B91248C8F81C00FFF7CE
:102E400077BA28460FF044FE10F008F803B2CAE53E
:102E50000C48FFF76DBA0023FEF7E7BA0A4E0023CD
:102E6000B362FEF7E2BA0748FEF7EEBF48460749ED
:102E70000FF0CCFF00287DF4BEAFFDF7A1BF00230B
:102E8000FEF729BC0000FF7F3440002000002042F4
:102E9000F8B5B84BB84D0122B5F9020083F82227E6
:102EA0000FF0C2FD002104460FF0B0FF002840F0F3
:102EB0009B81B24920460FF0C7FF002840F05281A5
:102EC000AF4920460FF004FE0FF0EEFFAD4CAE4EC2
:102ED0006768F061002138460FF098FF002840F045
:102EE00071814FF07E5138460FF0AEFF002800F0A0
:102EF00083814FF480333362B5F904000FF094FD01
:102F0000002106460FF082FF002840F059819B49BE
:102F100030460FF099FF002840F04E819849304626
:102F20000FF0D6FD0FF0C0FFA768984E0021F061AA
:102F300038460FF06BFF002840F040814FF07E5183
:102F400038460FF081FF002800F08C814FF4803369
:102F50003362B5F906000FF067FD002106460FF059
:102F600055FF002840F03281844930460FF06CFF55
:102F7000002840F01F81824930460FF0A9FD0FF074
:102F800093FFE768824E0021F06138460FF03EFF64
:102F9000002840F01F814FF07E5138460FF054FF5B
:102FA000002800F056814FF480333362B5F90800F1
:102FB0000FF03AFD002106460FF028FF002840F0F0
:102FC00007816E4930460FF03FFF002840F0F08047
:102FD0006B4930460FF07CFD0FF066FF27696D4EA0
:102FE0000021F06138460FF011FF002840F0EC801E
:102FF0004FF07E5138460FF027FF002800F0208167
:103000004FF480333362B5F90A000FF00DFD002153
:1030100006460FF0FBFE002840F0E480574930469A
:103020000FF012FF002840F0C180554930460FF0E4
:103030004FFD0FF039FF6769574E0021F0613846A8
:103040000FF0E4FE002840F0C9804FF07E51384672
:103050000FF0FAFE002800F0EA804FF4803333626C
:10306000B5F90C000FF0E0FC002106460FF0CEFE93
:10307000002840F0B180414930460FF0E5FE0028BD
:1030800076D13F4930460FF023FD0FF00DFFA769C1
:10309000424E0021F06138460FF0B8FE002840F0A3
:1030A0009F804FF07E5138460FF0CEFE002800F092
:1030B000B5804FF480333362B5F910000FF0B4FCE3
:1030C000002106460FF0A2FE002840F08F802B4919
:1030D00030460FF0B9FE002848D1294930460FF09C
:1030E000F7FC0FF0E1FE276A2D4E0021F061384613
:1030F0000FF08CFE00287DD14FF07E5138460FF046
:10310000A3FE002800F081804FF48033B5F912004F
:1031100033620FF089FC002105460FF077FE00288E
:1031200066D1164928460FF08FFEE8B914492846A3
:103130000FF0CEFC0FF0B8FE656A1A4C0021E0617A
:1031400028460FF063FE002840F095804FF07E5136
:1031500028460FF079FE002800F090804FF4803070
:103160002062F8BD1048B1E60F48E5E70E48BAE71F
:103170000D488CE704D9FF1FE0D8FF1FA655AC46C9
:103180004B24BE4740BEFF1F1C6900204069002041
:103190006469002088690020AC690020D0690020A3
:1031A000E0460020F469002080FFFF7F384842E7B6
:1031B000374813E73648E4E63548B5E60023C7E666
:1031C0000020B1E6002396E600231BE70020D8E6A6
:1031D000002003E70023E8E6002058E700233EE74D
:1031E000002368E7002026E700206FE600207AE74A
:1031F0000020A1E7002389E74FF08F4138460FF008
:1032000067FC0FF02BFE034675E64FF08F41384602
:103210000FF05EFC0FF022FE034677E74FF08F4180
:1032200038460FF055FC0FF019FE034643E74FF008
:103230008F4138460FF04CFC0FF010FE03460EE7AE
:103240004FF08F4138460FF043FC0FF007FE034666
:10325000D8E64FF08F4138460FF03AFC0FF0FEFDF4
:103260000346A2E64FF08F4138460FF031FC0FF0D5
:10327000F5FD03466CE600202062F8BD4FF08F415B
:1032800028460FF025FC0FF0E9FD2062F8BD00BFD5
:1032900080FFFF7FF0B4204E204B3268204F214D3D
:1032A000013283FB0234D317C3EB640303EBC30384
:1032B000D31A00EBC000C41807EB800247F82410B3
:1032C0003360043A05F124002B4652F8041F43F8FA
:1032D000041B8342F9D11448124B0124196853F896
:1032E000042F914203DD196043F8042C0024984216
:1032F000F4D1002CF0D00D49002355F8042FA94239
:103300001344FAD10A4880FB03201844DB17C3EBAF
:10331000A000F0BC704700BFF03E0020398EE338BB
:1033200014410020C8BDFF1FE8BDFF1FE4BDFF1F03
:10333000932449922DE9F04F844B1B78012B83B0E5
:1033400002D003B0BDE8F08F814BB3F9002032B951
:10335000804B03F1090103F8012F8B42FBD17E4C16
:103360002378002B40F0B7807C4A7D4E93614FF468
:10337000803113625362D161B37022780023042A32
:10338000F37000F07A832378052B00F0AF821A1FC8
:10339000012A00F2928173490A79CAB97248734CC2
:1033A000B0F9000084F8222705280FD0704D714C29
:1033B00071482A6222620262704F714E714D724CE6
:1033C00072483A6232622A622262026201220A7101
:1033D000062BB6D96E4B614A6E496F4F6F4E704DDA
:1033E000B3F90000DFF884914FF4803300248B613F
:1033F000CB6193617B62B361F36133627362AB61F2
:10340000EB612B626B62D461146254620C624C6299
:10341000BC61FC613C620FF007FB62490FF058FB96
:1034200061490FF009FC61490FF04AFA604A614BAB
:103430008246B2F90000C3F800A040120FF0F4FA7F
:103440005D4A99F823371060002B3FF47AAF89F872
:1034500023470FF003FD00B2C300DFF88081574F10
:10346000009325460126012D40F27682B4426AD2AD
:10347000B646234609EB43021632002032F8021FFB
:1034800001339E450844F9D80FF0CAFA4FF0625153
:103490000FF01EFB4A490FF01BFB83464949584673
:1034A0000FF0D2FC08B1DFF81CB1009B464A48F887
:1034B00004BF2B44504652F823100FF009FB0FF0C5
:1034C000CDFC0135082D06F1080604F1080427F8A3
:1034D000020FC8D135E7012B40F05B82344B1F4D02
:1034E000B3F900000FF0A0FA38490FF0A5FB4FF038
:1034F0007E510FF0E5F9264B0646B3F900000FF0B8
:1035000093FA33490FF098FB014630460FF0E0FA8A
:10351000304B314918600023AB6107460FF094FC33
:103520000646002840F09682002138460FF06EFCD7
:10353000002840F0D1824FF08F4138460FF0C8FA92
:103540000FF08CFC87E2A646334693E7F039002063
:103550009232002027B2FF1FCE4600207443002085
:103560000041002028B2FF1F4C3E002004D9FF1F5D
:103570001C690020406900206469002088690020DF
:10358000AC690020D0690020E0460020F4690020EA
:10359000B8D8FF1FC842002094670020B83F002021
:1035A000F03F00209A99F94000007A45CDCC4C3E7E
:1035B000F043002098300020186A0020E0D8FF1F58
:1035C0000000C8416666663F18B1FF1F0080BB441B
:1035D00000F07F45BC2F002000FEFF4640BEFF1FCD
:1035E000994E0025032BB5707FF4C7AE97489849D4
:1035F000984B994FC5614FF48032056245628261F4
:103600000A628D61CD614D629A61DD611D625A620F
:103610003D6272B6914B924A1D76DA6162B6914B69
:10362000FD61B3F900000FF0FFF98F490FF004FBC3
:10363000002180460FF0EAFB002840F081824FF025
:103640007E5140460FF000FC884FB7F91830002833
:1036500000F0798247F6FF700BB90023FB61844BC1
:103660003883B3F900000FF0DFF982490FF030FA28
:103670000FF0F4FB804A03B2184613800FF0D4F920
:10368000002105460FF0C2FB002840F057827B491D
:1036900028460FF0D9FB002840F04E827849284692
:1036A0000FF016FA4FF07C510FF00AF90FF0FCFB07
:1036B0002278B862032A7FF461AE00231A461946C5
:1036C0007048714D05F040FE2378052B7FF663AE00
:1036D000FFF7DEFB2B786D4A0024062B14717FF474
:1036E00077AE6B4A5A4B594E6A4F6B496B4D176018
:1036F0005F486B4A9C614FF480375F62DC611C62FB
:10370000B76145F699134FF400478B61CB610B62AB
:103710004B629761D761AB61EB612B626B621462A4
:103720005462B0F90000F461346274620FF07CF905
:103730005C495D4F0FF0CCF95C490FF07DFA5C49B4
:103740000FF0BEF8474A5B4B009001461960B2F992
:1037500000000FF069F958490FF06EFA5749584ABE
:1037600097F8233708601060002B00F0B281554BAA
:10377000554A1E7855485649DFF8689187F823471F
:1037800006F10043013B00EB430B13680C700193FF
:103790006325B7F8DE000FF043F94FF062510FF0E8
:1037A00097F94C490FF094F93A4949F825008046B9
:1037B0000FF040FB60B15EB1474B002433F9022F9C
:1037C000AA4208BF01249B45F8D1002C00F0868155
:1037D000023D6B1CA7F10407DBD1002E3FF4B1AD15
:1037E000DFF804B13D4F3C4D3D4C0BEB46064FF02E
:1037F000AC084FF0000A1BE04FF07E53236035F910
:10380000020F00FB08F00FF00FF900990FF060F9BC
:103810000FF024FB00B20028CCBFABF80000ABF8DF
:1038200000A00BF1020B5E4504F104043FF489ADE6
:1038300057F8049F4FF07E5148460FF005FB0028D3
:10384000DAD1C4F80090DAE7004100207443002088
:1038500094670020803F0020F8680020ACE0FF1F44
:103860000080FF3FF043002000F07F4564310020DE
:10387000B8D8FF1FC5491C3F40E0FF1FA655AC4606
:103880004B243E4794320020CE46002028B2FF1F32
:10389000F43900200AD7233CF03F0020B83F002035
:1038A000C84200203333734004D9FF1F0000FA459B
:1038B000CDCC4C3E9830002000409C47186A002038
:1038C0001CB2FF1F22B2FF1FCC670020206A00201D
:1038D00030400020000040411E6A0020C8670020E0
:1038E00040BEFF1F483B0020E0D8FF1FA14BA24D68
:1038F000B3F90030A148A24E03EBD37300214FF47B
:10390000C0375A10EF61A96129626962A2F16403AC
:1039100040F6FE754FF48037AB42C16101624162EF
:103920008761B6F9001000F39D80633A01FB02F352
:10393000002BB8BF03F6FF731B1364339149924AFF
:103940000978B2F900209148B1FA81F11BB2490916
:1039500005F0E6FC23781AE5B4422CBF3346234633
:1039600003F10C022CBFA646B64609EB420200202A
:1039700032F8021B01339E450844F9D80FF050F885
:103980004FF062510FF0A4F881490FF0A1F883467F
:1039900084E5022B7FF424AE7849774A7D4B7E4F35
:1039A00000254FF480368E61CD610D624D629561C8
:1039B000D561166255629D61DE611D625E623D8366
:1039C00072B6764B764A1D76DA6162B66C4BBD6292
:1039D000B3F900000FF028F872490FF02DF900211B
:1039E00007460FF013FA40B94FF07E5138460FF0FA
:1039F0002BFA002800F097803546634B6A4EB3F9E6
:103A0000000035620FF010F868490FF061F80FF010
:103A100025FA674A03B2184613800FF005F8002113
:103A200005460FF0F3F900287BD1624928460FF0D4
:103A30000BFA00284BD1604928460FF049F80FF0E7
:103A400033FA2378F061022B7FF4CAAD5B4B00227E
:103A5000DA7098E45A48594EE8610023B3702B623B
:103A60006B628AE4574A03FB01F382FB03121A4498
:103A7000DB17C3EBE223643360E73E4A3E49B2F909
:103A800000003E4A8B614FF480359561D36113622B
:103A900053620B624B62CD6101380EF0C5FF4149A4
:103AA0000FF0CAF8364B0546B3F900000EF0BCFF24
:103AB000014628460FF00CF80FF0D0F9324A03B255
:103AC000B2F900203148012105F03EFC5BE43E489C
:103AD000B7E73E4B1E7880E63046BCE700210198F0
:103AE0000FF08AF968B9DFF8FCA00134B4424FF056
:103AF0000001BFF66DAE5AF8040F0FF07DF90028F3
:103B0000F3D0334B334923F8145040460FF09CF95F
:103B1000314B10B943F824805AE62E4A43F824204A
:103B200056E600208DE74FF08F4138460EF0D0FF6B
:103B30000FF094F9054660E72848B9E50020B7E59D
:103B4000154F28468BE523B9002140460FF054F964
:103B500038B1234940460EF0BBFF0FF07FF900B2A9
:103B60007DE51F4940460EF0B3FF0FF077F900B234
:103B700073E500BF3CB2FF1F946700207443002030
:103B8000F043002018680020B8D8FF1F94320020AE
:103B900000009041803F002064310020ACE0FF1F16
:103BA0000080FF3F00F07F45F8680020C5491C3FBA
:103BB00040E0FF1FA655AC464B24BE470041002005
:103BC0000000FF7F8100088080FFFF7F22B2FF1F7F
:103BD000206A00206666663F74D8FF1FC0FFFF3F63
:103BE00000FEFF46CC6700202DE9F04F0F2085B086
:103BF00008F0C0FBC04AC14CC14D03B21380184647
:103C00000EF0AAFA0B4602460EF00CFB0EF0E2FD97
:103C100023780133DBB2000B012B2880237000F0E6
:103C20005285022B00F06B85B64CB4F90030002BA6
:103C300000F0A481B44DB54BB3F90020012A00F087
:103C40007F830C2008F0EAFFB14B0128187000F0C8
:103C50007083002800F0A480AE4EAF4F33883B80C5
:103C6000072008F0DBFF00B23080002832D1B7F91E
:103C70000030AA4E012B00F08783B6F90030012BEB
:103C800000F00985B4F90030012B00F00F85A44C39
:103C90000A2008F0C3FF2080192008F0BFFFA14CC4
:103CA00000B22080002800F00081012800F012817D
:103CB0001B2008F0B3FF9C4B9C4A2978118000B26E
:103CC0001880914B002840F0E88001221A7005B05E
:103CD000BDE8F08F012840F09A80B7F90030002B42
:103CE00040F09580B4F90020012AD0D18B4A13808E
:103CF0008F4A904BB2F90010B3F9003001F10C0279
:103D0000934200F38A80A1F10C029342C0F28580B5
:103D1000894A8A4BB2F90020B3F9003002F10C0154
:103D20008B4200F35883A2F10C018B42C0F2538303
:103D30007B4C834A834BB2F90020B3F9003002F187
:103D40000C018B4203DCA2F10C018B42A0DA7E490C
:103D50007E4B0E881E8040F225239A42D8BF002356
:103D60007B48D8BF0B80012693B20670A3F22620B1
:103D700080B240F2DD36B0429CBF01200880A3F241
:103D80000460B0F5826F38BF0220A3F6142338BF59
:103D90000880B3F57F7F80F01F8503230B8077E7D2
:103DA000102008F0E7FA6B4B6B4AB3F900306B4F09
:103DB000C0F57F60C3F56B610F300A3106B2B1F513
:103DC000805F16803E80A6EB030280F2D682C2EBB3
:103DD000023393FBF1F31BB2002BDFF89C81C0F29E
:103DE000498540F6FF729342A8BF1346A8F80030F9
:103DF0005B4BB3F90070002F40F3C184594B002294
:103E0000012F1A6040F0CC84574B1E8024E7B4F990
:103E10000030012B7FF43BAF6AE7514A53481488C6
:103E2000534B04801D294FF001001870DCBF0023A4
:103E300013808BB2A3F11E00B0F5EB7F3CBF0120D5
:103E40001080A3F5FA7080B240F2ED24A0429CBF2E
:103E500002201080A3F2E24080B240F20934A04276
:103E60009CBF03201080A3F2EC7080B240F221349A
:103E7000A0429CBF04201080A3F60E30B0F5347F22
:103E800038BF0520A3F6DE5338BF1080B3F5FF7F9F
:103E900080F09A82062313803AE701287FF417AF57
:103EA00000221A7005B0BDE8F08F324EF28824214E
:103EB00022F01002304604F0B1FBF28842F4807226
:103EC00092B23046242104F0A9FBB4F90000012885
:103ED0007FF4EEAE274CE28842F0100292B2204608
:103EE000242104F09BFBE288204622F480722421E6
:103EF00004F094FBDCE600BF426A0020AC6A0020BC
:103F0000D2BEFF1FE4310020F039002018B2FF1F9D
:103F1000B86A0020423A00202C3A002018470020BE
:103F20006E680020EC3E0020446A0020923200209F
:103F3000583E0020EABEFF1F283A0020143E002011
:103F40009C470020183E0020406A0020B84700200F
:103F50009C31002010B1FF1F0C2F002048E0FF1FF4
:103F60003CBEFF1F082F0020FC300020C83100207D
:103F700060310020202F0020742F0020AE4EDFF88B
:103F80005483337888F80030022008F047FEAB4FA6
:103F9000DFF844933A78AA4B30701C20019389F8DB
:103FA000002008F03BFEA74BA74A1978019B387008
:103FB00093F800C082F800C0002900F0D081DFF83B
:103FC0001CB3DFF81CA3012900F05B84337833B9FC
:103FD0003B7823B999F80030012B00F06A859B4F9C
:103FE000DFF800933B88A9F80030112008F016FE96
:103FF00000B23880002840F07C82B9F90030012BF3
:1040000000F07282062008F009FE0746082008F03A
:1040100005FE8146002F40F078828D4BB5F90000F7
:104020001F700EF001FD8B4A8B4B116801930EF04F
:104030004FFD0EF013FF8949019B894A0F881880B4
:104040008849894B12880F801A80B9F1000F00F05F
:10405000CA831E2008F0E2FD05461D2008F0DEFDA3
:10406000002840F081827B4B804A1A60012D03D0EA
:1040700015B9784B7E4A1A60BAF90030012B00F06E
:10408000E083002B40F02484BBF90030012B00F0CA
:104090002A8463B9704B774DB3F900000EF0C4FC6D
:1040A000754B19680EF00CFC0EF0D8FE28803378A2
:1040B00098F800209A420BD0704F714D7149724EA2
:1040C0007248734A3F882D8809883780058011809F
:1040D000002B40F09D82694A6B4BB2F90010B3F996
:1040E000003001F10802934204DCA1F1080293427E
:1040F00080F208848AB2A2F11403B3F5F07FA2F52E
:10410000FA7034BF0223012380B240F2ED26A2F2FE
:10411000E245B04298BF0323ADB240F20936A2F2A5
:10412000EC70B54298BF042380B2A2F60E3640F27E
:104130002137B84298BF0523564DB6F5347FA2F615
:10414000DE5238BF0623B2F5FF7F2980C0F0C98355
:1041500040F6DB729142C8BF08234F4D2A78012AEE
:1041600000F098843AB94D4A4D4816884D4906806A
:10417000012013800880424B444AB3F90030B2F961
:10418000002003F108018A4203DCA3F108018A42FE
:104190000CDA454A45491088088040F6FE718B428A
:1041A00040F39A831180424B01221A80354A384BE2
:1041B000B2F90000B3F9003000F10802934204DCC8
:1041C000A0F108029342BFF636AD3A4F3A4B3B4A54
:1041D000398811804FF00108A3F800800EF024FC0C
:1041E000374B3849186006460EF010FE08B1A7F8A4
:1041F0000080344930460EF01DFE30B13249304661
:104200000EF004FE002840F0D4832F4930460EF013
:1042100011FE30B12D4930460EF0F8FD002840F077
:10422000C5832A4930460EF005FE00285FD0284994
:1042300030460EF0EBFD57E0702F0020186800208C
:1042400060D6FF1FBDD8FF1FB8BEFF1F00BEFF1FF7
:104250002C4000203CE0FF1FE8BEFF1F706A0020DA
:10426000403A0020F043002000D9FF1F000020400A
:10427000CDCCCC3EB8D8FF1F082F0020583E0020E0
:10428000283A00209C470020EABEFF1F143E002071
:10429000183E00202C2F0020F03900204C3E00203A
:1042A0006C6800208E6A0020D0BEFF1F42E0FF1F16
:1042B000FC4000207C3F00208C6A00203839002020
:1042C000A86A0020000048420080E843004067449C
:1042D0000060B844163E0020324000202A3A0020F8
:1042E000E4430020B26A0020002840F05C83A44927
:1042F00030460EF09FFD30B1A24930460EF086FDEB
:10430000002840F04D839F4930460EF093FD30B1B8
:104310009D4930460EF07AFD002840F0F782304685
:1043200099490EF087FD00283FF485AC07233B80B8
:1043300081E4964A964B0021116000221A808BE49A
:10434000944F9549954E964A96483F880F803688F7
:10435000954900881680002208801A8071E499F837
:104360000010012900F07F8311B9012800F0248397
:10437000DFF890B2DFF890A228E6C3F56B63120372
:104380000B3392FBF3F326E5B4F90020002A7FF407
:1043900074AC864886490280DFF868E2854833803D
:1043A000854F864B0A7086490270AEF800203A703D
:1043B00003F1140003F8012F984201F8012FF9D1FD
:1043C000804B01221A805DE440F6DB739942C4BF42
:1043D000072313809CE4132A02DC7B4B0021198005
:1043E00093B2A3F11401B1F5F07F02D27649012016
:1043F0000880A3F5FA7189B240F2ED20814202D81B
:10440000714902200880A3F2E24189B240F20930EA
:10441000814202D86C4903200880A3F2EC7189B272
:1044200040F22130814202D8674904200880A3F677
:104430000E31B1F5347F02D2634905200880A3F61E
:10444000DE53B3F5FF7F80F0BE815F4B06221A80FA
:104450005E4CB4F90070012F11D0002F7FF469ACCD
:104460005B4B594A5B491E7812785B480E700121FC
:104470001A700170002A7FF45CAC197059E4524B39
:10448000DFF8889193F80080544A554B99F8001052
:10449000117089F800801F70524EB8F1000F40F083
:1044A000A882B06C036847F61221DB6998470023A5
:1044B0004FF6FF72032186F84C3086F84E3086F8AE
:1044C0004D30B365736586F8E93086F8663086F856
:1044D000653086F8673086F86830F265326686F8AF
:1044E0006410B4F90070B8E73F4804F0A7FCB7F9CE
:1044F000000001287FF486ADB9F90030002B7FF46D
:1045000081AD394804F0C2FC7CE5012F7FF49DADFC
:1045100001287FF49AAD204A344BB2F9000083F8A9
:1045200000900EF081FA3249324F0EF0D1FA0DF0C0
:1045300025FE02460B460DF075FE0EF023F9C01263
:1045400000F11E033B80B5F900002B4D0EF06CFA14
:104550002A4B19680EF0BCFA0EF080FC124A284B68
:10456000128828801A8074E5012D7FF481AD01281E
:104570007FF482AD214B4FF07E521A607CE500BF84
:104580000060B84400401C4500C05A45082F002078
:1045900090320020583E0020706A0020283A002007
:1045A0001A6800209C470020403A00206E6A0020D4
:1045B000C44200200C6800203340002067D6FF1F53
:1045C000BB6A0020A46A0020D06A00206E68002028
:1045D000B06A0020746800200D6800201068002078
:1045E00031400020D83C0020443F00202C400020D7
:1045F0003333333FE8BEFF1FF04300203CE0FF1F92
:1046000000D9FF1F2A3A0020E4430020746A0020EA
:10461000012B7FF40FABBF4E3378002B00F06C8181
:10462000BD4BB3F90010BD4D2B78002B00F02C8250
:10463000BB4BB3F90020BB480378002B00F00D8280
:10464000B94BB3F90030B94FB7F9007001F1080E5A
:10465000774502DC08398F4201DA00213170B44914
:10466000B1F9001002F10806B14202DC083A9142A9
:1046700001DA00222A70AF4AB2F9002003F10801E2
:104680008A4203DC083B9A42BFF6D4AA0023AA4D13
:104690000370FFF7D0BAA9490A88013212B2B2F505
:1046A000AF7F0A80C8BF23807FF7ECAAB6F900303D
:1046B000A34A002B7FF41CABA049238013800B80FE
:1046C000A04CFFF7E5BA944F984B3A881A80142013
:1046D00007F050FE01460220FEF7DCFD904E944BA1
:1046E000328838800E201A8007F044FE01460320ED
:1046F000FEF7D0FD23783080022B7FF495AA8A4EF6
:104700008C4B32881A80152007F034FE01460420B5
:10471000FEF7C0FD3080222007F02CFE014601206C
:10472000FEF7B8FD884A1388191D884203DC191F5B
:10473000884280F2E98010800EF076F983490EF00D
:104740007BFA834B8349186007460EF07DFB0646D3
:10475000002840F09480002138460EF057FB0028D6
:1047600040F0B0814FF08F4138460EF0B1F90EF0B5
:1047700075FB794A002390612370FFF755BAA6F5BF
:1047800000600EF051F97549DFF810920EF054FAFE
:10479000C9F80000002F3FF45FAA0023C9F80030D9
:1047A000022F40F05481B8F900305B1201331BB284
:1047B000002B40F37981082B40F31781684B0822C6
:1047C0001A80FFF749BA40F6DB739A427FF740AE92
:1047D000644B07221A803BE6B2F5616FA4BF042345
:1047E0000B80FFF755BA604A604BB2F90000604F8A
:1047F00002221A700EF018F95E490EF069F90DF0F8
:10480000BDFC02460B460DF00DFD0DF0BBFF5A4AF4
:104810005A4B12881A80C01200F11E033B80B5F972
:104820000000574D0EF000F948490EF047F8554B7F
:1048300000F1004019680EF04BF90EF00FFB2880D4
:1048400007E4BBF90030012B7FF423AC484B4E4DFD
:10485000B3F9003003EBD3735810A0F5FA700EF0E3
:10486000E3F84A4B19680EF02BF8494B19680EF023
:104870002FF915E40023A8F80030FFF7B9BA45482E
:1048800077E799F80000012800F0A5801078424AE7
:1048900068B993F800E0BEF1010F7FF497ABBBF964
:1048A0000010002900F034810022AAF8002001281D
:1048B0007FF48CAB1B78002B7FF488ABBBF9003006
:1048C000002B00F02E810123AAF80030FFF77EBBF9
:1048D000BBF90030FFF7DDBB002BB8BF002313800E
:1048E00061E4072339E4294A294B10681968264DE9
:1048F0000EF0EEF8FFF7D4BB074A1F4BB2F90010D9
:10490000198090E60C4D36E4184615E706233B80E7
:1049100005E500BF0C680020583E00203340002011
:10492000283A0020C44200209C47002094470020E1
:104930000E68002044300020F0390020A46A0020D6
:10494000184700206E680020DC3E002000F07F4504
:10495000E831002000FEFF460043002000004040F8
:104960004C3E0020D06A0020403A00202C4000201D
:10497000E8BEFF1F3333333F706A0020F04300204E
:1049800000D9FF1F3CE0FF1FB8D8FF1F44E0FF1F06
:1049900014B1FF1F0000FF7FB8BEFF1F082F0020CB
:1049A00005233B80AFE404233B80A0E403233B804A
:1049B00037E402233B8028E4DFF8FCB1DFF8FCA1F8
:1049C000BBF9000000287FD06E4900200978AAF8C2
:1049D0000000FFF7F8BA387800287FF457AF18784E
:1049E000B0FA80F04009187050E7674A1380FFF76B
:1049F00033B9B06C036847F61221DB69984796F823
:104A0000643099F8000086F84C8067F34703DBB206
:104A100043F001024FF6FF71002386F8642086F808
:104A20004E3086F84D30B365736586F8E93086F808
:104A3000663086F8653086F8673086F86830F1654C
:104A4000316600283FF42DADB4F9007005E5032F61
:104A50006BD14E4B1E80FFF7FFB84D4B4D4FB3F956
:104A600000303B80EFE5DFF850B100287FF482ACE6
:104A7000BBF9000000282FD0DFF840A1AAF80010F1
:104A800040490978FFF79FBA434A444BB2F90020E6
:104A90001A80D0E54249434E43480F783770013BB6
:104AA0000B700270FFF767BB374B01221A80FFF7CC
:104AB000D3B8344B334A1B78B3FA83F35B091370D2
:104AC000FFF78DBA304654E638480293019204F05D
:104AD000DDF9029B019A77E7344803930292019132
:104AE000DFF8D8A004F0AAF999F800000199AAF813
:104AF0000010029A039B0028C2D1387801283FF4A5
:104B00005FAF2049087801283FF4C0AEFFF75EBAD6
:104B100026480293019204F0B9F9019A029B107899
:104B2000C2E6224804F08AF9CDE6042F14D1B8F980
:104B3000003040F6FE72934203DD1D4B1A80FFF7F2
:104B40008BB8002B04DA1A4B00221A80FFF784B8C6
:104B5000174A1380FFF780B8052F03D10F4B1E8033
:104B6000FFF77AB8062F07D1B8F90000114E0DF003
:104B70005BFF3060FFF770B87FF76EA8054B1E80B3
:104B8000FFF76AB8BDD8FF1F4C3E0020706A0020B6
:104B90009C470020403A0020283A00201A68002054
:104BA000CE4600201E680020BCD8FF1F443F0020D6
:104BB000D0BEFF1FA86A00202A3A0020E44300204C
:104BC00030B5454BB3F9004083B0002C30D1434998
:104BD000434A0B680093009B10681B1AB3F57A7F59
:104BE00026D9404D0B680193B5F900300199116049
:104BF000012B59D03C4CB4F90030012B22D03B4C56
:104C0000B4F90030012B5ED0394C2378012B52D0FF
:104C1000384C2378012B37D0374C2378012B2BD0FD
:104C2000364C2378012B37D0354C2378012B01D01B
:104C300003B030BD334B1620197807F099FC0023E0
:104C40002370F5E7304DB5F9001040F6FE73994238
:104C50000BDD2B800F210B2007F08AFC29780C201C
:104C600007F086FC00232380C9E70029B6BF002196
:104C7000C1F307212980EEE7244B1220197807F0B1
:104C800077FC00232370CBE7214B1020197807F025
:104C90006FFC00232370BFE71E4B1420197807F028
:104CA00067FC00232370BFE71B4B0A20197807F02D
:104CB0005FFC2C809EE7194B0E20197807F058FCFA
:104CC00000232370A4E7164B0D20197807F050FC41
:104CD0000023238098E700BFE4310020F86D002016
:104CE000284000208E6A0020FC4000208C6A0020B2
:104CF000BCD8FF1F314000200D680020603100202B
:104D00009C310020406A0020D0BEFF1FB06A002006
:104D1000746A00203CBEFF1F4C3E0020CE4600209F
:104D20007C3F00202DE9F8439D4DB5F90040022C51
:104D300040F368819B499C4A0023CB610B629362DC
:104D40001383E31E9BB2012B40F232829749984AAB
:104D50009848994B994F83614FF4803600238E61B8
:104D600096614FF0A046CB610B624B62D361136238
:104D70005362C7614662052C40F0F882904EDFF81E
:104D800080E2B6F900708F498F4CBAB2C2F57F60ED
:104D90000F3000234FF4803C00B2092F2080CEF862
:104DA00018C0CEF81C30CEF82030CEF824308B61FD
:104DB000C1F81CC00B624B6202DC844BC3F820C0FC
:104DC0000A3A92B240F2F5739A4231D80DF02CFEB5
:104DD0007F490DF073FD7F490DF07AFE7E490DF09D
:104DE0002BFF4FF07E510DF06BFD7C4B00211860C6
:104DF00080460EF029F8A0B140460DF0BFF9002220
:104E00004FF080430BF0FAF84FF08F4140460DF021
:104E10005FFE0EF049F8DFF8B491B6F90070C9F8FA
:104E20002000404600210DF0FBFF002840F04F839A
:104E3000B7F5006F30DBB4F900000DF0F5FD4FF071
:104E40008A410DF03BFD66490DF042FE4FF03A41BC
:104E50000DF03EFE63490DF033FD604B00211860FC
:104E600004460DF0F1FF80B120460DF087F90022D5
:104E70004FF080430BF0C2F84FF08F4120460DF009
:104E800027FE0EF011F8514E3062204600210DF041
:104E9000C7FF002840F01F83B5F90040052C40F300
:104EA0006E82062C3DD1464EB6F90020142A07DC4E
:104EB0004D4C00234FF48031A161E36123626362B2
:104EC00093B2C3F57F600A3B0F303F4F9BB240F275
:104ED000F57100B28B42388040F28B82B2F5006FE0
:104EE0005BDB414C00234FF48032E261A36123621B
:104EF00063620DF099FD4FF08A410DF0DFFC3B49F4
:104F00000DF0E6FD4FF03A410DF0E2FD4FF081412A
:104F10000DF0D6FC28210246354804F089F8B5F991
:104F20000040072C39D1264B274C1B882E4AC3F54D
:104F30007F630F331BB240F6F5700021834223805C
:104F4000D16100F326824BF233304CF6CC41B3F5FD
:104F5000006F9061516280F22082264A2649A3F5B3
:104F6000006302FB03F381FB03211944DB17A3EB6E
:104F7000A12101F5FA5109B2002940F3A68242F2BB
:104F80000E739942A8BF19461C4804F05DFBB4F9A2
:104F90000030B3F5006F80F20082BDE8F88300BFF7
:104FA0007C3F0020A43100204CE0FF1FEC66002075
:104FB000AC4300201C47002000BE6C50008C3C4BD2
:104FC00000D9FF1F38430020F4470020F8390020A3
:104FD00000507F459A9959BF00A0FEC4B46A0020D2
:104FE000295C0FBE9A99193E6C6600200000604251
:104FF00004BEFF1FC2E0FFFF01021080C43D00207D
:1050000024670020012C61D1A04BA14CB3F9000012
:10501000A049A14E00234FF48032A261E3612362D4
:1050200063629E4C8A611328CB610B624B62B26152
:10503000F361336273629A49A361E26140F3C9810B
:10504000226263628B61CA610B624B62A0F114033E
:105050009BB240F2EB72934240F20F82B0F5006FC8
:10506000C0F22E820DF0E0FC4FF08A410DF026FCDC
:105070008C498D4C0DF02CFD8C490DF0DDFD8C49DB
:105080000DF01EFC206072B68A4B8B4ADA61002656
:105090001E7662B62468002120460DF0B7FE002877
:1050A00040F00882854920460DF0CEFE002840F0F1
:1050B000C781834920460DF00BFD0DF0F5FE814BB5
:1050C000B5F90040D8614FF400421A62022C7FF417
:1050D00038AE6E4B6F49B3F900006D4C6E4E002335
:1050E0004FF4803213288A61CB610B624B62A2615C
:1050F000E36123626362B261F36133627362674C9E
:10510000674940F36D81A261E261236263628B6152
:10511000CA610B624B62A0F114039BB240F2EB72C6
:10512000934240F28F81B0F5006FC0F2C7810DF05D
:105130007BFC4FF08A410DF0C1FB5A495A4C0DF0EF
:10514000C7FC5A490DF078FD59490DF0B9FB2060B4
:1051500072B6584B584ADA6100261E7662B6246849
:10516000002120460DF052FE002840F0A181534955
:1051700020460DF069FE002840F06081524920462B
:105180000DF0A6FC4FF07C510DF09AFB0DF08CFE5B
:105190004E4BB3F91820986202B9DA61B5F90040B4
:1051A00043F6FF721A83E31E9BB2012B3FF6CEAD8E
:1051B000032C40F0FB81354B4549B3F90020454BAA
:1051C0004FF07D50186093B2C3F57F600F3000B28E
:1051D000092A088019DC304F3F4EDFF820E14FF4F8
:1051E0008031B9610021F16131627162F961396226
:1051F00079624FF44041B1613849394ECEF8181008
:105200003849CEF81C60CEF824100A3B9BB240F21D
:10521000F5718B4276D9B2F5006FC0F2A9802E4AA3
:105220001D4900234FF440464FF480378B61CB611A
:105230004B62D3611362536296610F620DF0F4FB0F
:105240004FF08A410DF03AFB27490DF041FC4FF039
:105250003A410DF03DFC25490DF032FB244B254928
:10526000186006460DF0D2FD002840F02B8122493F
:1052700030460DF0E9FD002800F036811848174E41
:105280001E4B1F4A9E61D8615A6271E000D9FF1F10
:105290006C66002038430020EC6600205C6700202C
:1052A000246700200000B442686A002000E0FF4448
:1052B0000000204184E0FF1F0080FF3FA655AC4660
:1052C0004B24BE47A43100204B243E474CE0FF1F37
:1052D000F44700205CD6FF1FAC43002000BE6C509A
:1052E000008C3C4B800E245A0080BBC50080BB451F
:1052F000D46A00200000A0411EDE89461C47002021
:10530000405555358E4A8F4900234FF440444FF4A1
:1053100080368B61CB614B62D361136253629461BF
:105320000E620DF081FB88490DF0C8FA87490DF037
:10533000CFFB87490DF080FC86490DF0C1FA864B02
:105340008649186004460DF061FD002840F0C980D0
:10535000834920460DF078FD002800F0DB8081486D
:10536000814C824B824A9C61D8615A62B5F90040F7
:10537000804B4FF480321A62052C3FF792AD7E4B82
:1053800000224FF480319961DA611A625A62BDE8F5
:10539000F8834FF4803051629061784A7849A3F6DF
:1053A000FF7302FB03F381FB03211944DB17A3EB1B
:1053B000A12101F51C510E3109B2002942F20E73F0
:1053C0007ADD9942A8BF19466E48BDE8F84304F05B
:1053D0003BB9236263628A61CB610B624B6235E643
:1053E000A361E261236263628A61CB610B624B62FB
:1053F00091E6614C00234FF48032A3612362636223
:10540000E2610DF011FB50490DF058FA4FF0814167
:105410000DF05EFB4E490DF00FFC00210DF050FA2F
:1054200028210246584803F003FEB6F90030B3F5D0
:10543000006FFFF674ADB7F9000053E55348A7E6D7
:1054400053483CE60DF0F0FA5249534C0DF040FB46
:105450004FF068510DF03CFB00210DF031FA0CF0DB
:105460008DFE02460B460CF0DDFE00224B4B0DF08C
:1054700003F80DF0CFF920606AE60DF0D5FA454942
:10548000454C0DF025FB4FF068510DF021FB00213C
:105490000DF016FA0CF072FE02460B460CF0C2FE3E
:1054A00000223E4B0CF0E8FF0DF0B4F92060EAE575
:1054B00030466DE6304602E6012185E7364C47E688
:1054C000354CE0E53648374EDAE601215CE5294BFC
:1054D00000221A62ACE4274BB5F9004000221A62A0
:1054E0004AE72F482F4C3CE730462F490DF0F0FAA1
:1054F0004FF09E4107460DF0EBFA0DF0AFFC06466B
:1055000038460AF03DFD4FF09E410DF0E1FA0DF0F6
:10551000A5FCB5E6204624490DF0DAFA4FF09E418D
:1055200006460DF0D5FA0DF099FC044630460AF017
:1055300027FD4FF09E410DF0CBFA0DF08FFC10E7E8
:10554000AC430020EC66002000507F4500C05AC6E6
:1055500000A0FEC400409C46D46A00200000A04188
:105560001EDE8946008C3C4B00BE6C501C47002060
:1055700040555535F83900206C66002032F8FFFFA1
:1055800001021080C43D002004BEFF1FC0FFFF3F8A
:1055900080FFFF7F00002041686A00200000244057
:1055A0007A5517007B55170046561538042C7FF4A2
:1055B000E2AB4F4B4F48B3F900204F4B4F491860B7
:1055C00093B2C3F57F600F3000B2092A08801CDC5B
:1055D0004B4F4C4EDFF84CE14FF48031B961002164
:1055E000F16131627162F9613962796249F2EB11FC
:1055F000B1614549CEF81810A1F11561434ECEF8BE
:105600001C60A1F59841CEF824100A3B9BB240F2F1
:10561000F5718B4239D9B2F5006FFFF6A9AE394A60
:10562000374900234FF4803749F2EB168B610B6248
:105630004B62D361136253629661CF610DF0F4F94E
:105640004FF08A410DF03AF931490DF041FA4FF02F
:105650003A410DF03DFA2F490DF032F92E4B2F490A
:10566000186006460DF0D2FB60B92D4930460DF0AA
:10567000EBFB30B32548244E2A4B2B4A9E61D86160
:105680005A6275E629482A4EF6E71E4A1C4900234D
:105690004FF4803749F2EB168B610B624B62D3619A
:1056A000136253629661CF610DF0BEF921490DF08E
:1056B00005F921490DF00CFA20490DF0BDFA2049F9
:1056C000CAE730461F490DF003FA4FF09E410746E6
:1056D0000DF0FEF90DF0C2FB064638460AF050FC0C
:1056E0004FF09E410DF0F4F90DF0B8FBC4E700BF98
:1056F00000D9FF1F85EB113F5CD6FF1FF447002048
:10570000EC660020AC43002000BE6C50008C3C4B8B
:105710000080BBC50080BB45D46A00200000A041CA
:105720001EDE89461C470020C045171D7A5517000C
:105730007B55170000507F4500803BC600A0FEC48B
:1057400000A08C4646561538314BB3F9001000299D
:105750004FDD2DE9F04F2F4BDFF8C4A01B682E481A
:1057600083B0002401932D4B0AF10109B3F900B075
:105770002246A6464D1E02E001328A4231D01AF876
:10578000013F019EB342F7D1914230DD1346013211
:105790001446C718564699422CDC9D42A44603F194
:1057A000010304F1010406F1010607F1010707DC1A
:1057B00010F8018000F8058009F805E000F801E024
:1057C0008C45E8DB0BF1FF3B0FFA8BFBBBF1000FC5
:1057D0000BDB8B454FF00104CFDD8A424FF0000B0D
:1057E000CDD184B903B0BDE8F08F0124F5E70132D3
:1057F000E8E7704796F8018097F801C086F80080C6
:1058000087F800C0C9E7054BA3F800B0EAE700BF7E
:1058100020B2FF1F70680020BC6A002024B2FF1F66
:1058200067D6FF1F1C4B1D49B3F9002070B51C4CF7
:105830001C4DB4F900302B800020012A088000D0D4
:1058400070BD194A1949B2F900200A4412F8012C16
:1058500022809AB19342F3D01548164E03F0EEFA27
:10586000154AB4F90040154B52F8240018600DF0A9
:10587000F5FA3080002CE3D1B5F90030002BDFDDE4
:105880000B480E4C03F002FB0A4BB3F900000DF07D
:10589000CBF8206070BD00BF2A3A00201C680020B1
:1058A0001C6A0020ECBDFF1F24B2FF1F68D6FF1F3B
:1058B000443F00206C6A0020684B020044E0FF1F58
:1058C0002DE9F0430E2889B028D00F280AD01028DF
:1058D00050D1794C794B4901012221801A7009B0CD
:1058E000BDE8F083C1EBC1000DF09EF80021044635
:1058F0000DF08CFA00285ED1714920460DF0E8F8D1
:105900000DF0D2FA0730C008B0F5803F6D4B21D3BF
:105910004FF6FF729A8609B0BDE8F083C1EBC10073
:105920000DF082F8002104460DF070FA002844D1F1
:10593000634920460DF0CCF80DF0B6FA0730C008E8
:10594000B0F5803F5F4B0DD34FF6FF725A8509B01B
:10595000BDE8F08398860028C1D101229A8609B05B
:10596000BDE8F08358850028B9D101225A8509B0D5
:10597000BDE8F083112806D1534B0911013119807C
:1059800009B0BDE8F083122807D1504A504B0120DE
:105990001070198009B0BDE8F083132802D14D4B77
:1059A00019809CE714280AD14B4C4C4B4901012229
:1059B00021801A8093E7434BCFE7424BD5E7152868
:1059C00008D14748474B80FB0120C917C1EBA00114
:1059D000198084E7162806D1434C444B4901012223
:1059E00021801A707BE717287FF479AF404D00299A
:1059F000298053DD3F4CB4F90060002E7FF46FAF77
:105A00003048DFF8009103F019FA04AF31466846D8
:105A100008F060FF6946384608F070FF364938469E
:105A200008F0C8FFB9F9001008F0D2FF014633486A
:105A300008F092FE314808F0B5FE384608F00AFF3B
:105A4000684608F007FFB5F900300122E8462280D9
:105A5000002B7FF444AF1B4803F018FA00214046A6
:105A600008F038FF4146384608F048FF24493846D8
:105A700008F0A0FFB9F9001008F0AAFF01461F487E
:105A800008F06AFE1D4808F08DFE384608F0E2FE78
:105A9000404608F0DFFE0023238020E77FF41FAF9D
:105AA000144CB4F90030012B7FF419AFE84604AF71
:105AB000DFF85090CFE700BF706A00200C6800202C
:105AC00079783042443F00204C3E00203340002093
:105AD0001A680020D0BEFF1F203F0020AE6A0020C1
